{
  "contractName": "PaymentManager",
  "abi": [
    {
      "constant": true,
      "inputs": [
        {
          "name": "",
          "type": "address"
        }
      ],
      "name": "usersData",
      "outputs": [
        {
          "name": "referenceAddress",
          "type": "address"
        },
        {
          "name": "balance",
          "type": "uint256"
        }
      ],
      "payable": false,
      "stateMutability": "view",
      "type": "function"
    },
    {
      "constant": true,
      "inputs": [
        {
          "name": "",
          "type": "uint256"
        }
      ],
      "name": "users",
      "outputs": [
        {
          "name": "",
          "type": "address"
        }
      ],
      "payable": false,
      "stateMutability": "view",
      "type": "function"
    },
    {
      "constant": true,
      "inputs": [
        {
          "name": "",
          "type": "address"
        }
      ],
      "name": "providersData",
      "outputs": [
        {
          "name": "referenceAddress",
          "type": "address"
        },
        {
          "name": "balance",
          "type": "uint256"
        },
        {
          "name": "cost",
          "type": "uint256"
        }
      ],
      "payable": false,
      "stateMutability": "view",
      "type": "function"
    },
    {
      "constant": true,
      "inputs": [
        {
          "name": "",
          "type": "uint256"
        }
      ],
      "name": "providers",
      "outputs": [
        {
          "name": "",
          "type": "address"
        }
      ],
      "payable": false,
      "stateMutability": "view",
      "type": "function"
    },
    {
      "inputs": [],
      "payable": false,
      "stateMutability": "nonpayable",
      "type": "constructor"
    },
    {
      "constant": false,
      "inputs": [],
      "name": "userSignup",
      "outputs": [],
      "payable": false,
      "stateMutability": "nonpayable",
      "type": "function"
    },
    {
      "constant": false,
      "inputs": [
        {
          "name": "cost",
          "type": "uint256"
        }
      ],
      "name": "providerSignUp",
      "outputs": [],
      "payable": false,
      "stateMutability": "nonpayable",
      "type": "function"
    },
    {
      "constant": false,
      "inputs": [],
      "name": "userTopUp",
      "outputs": [],
      "payable": true,
      "stateMutability": "payable",
      "type": "function"
    },
    {
      "constant": false,
      "inputs": [
        {
          "name": "value",
          "type": "uint256"
        }
      ],
      "name": "userWithdraw",
      "outputs": [],
      "payable": true,
      "stateMutability": "payable",
      "type": "function"
    },
    {
      "constant": false,
      "inputs": [
        {
          "name": "value",
          "type": "uint256"
        }
      ],
      "name": "providerWithdraw",
      "outputs": [],
      "payable": true,
      "stateMutability": "payable",
      "type": "function"
    },
    {
      "constant": false,
      "inputs": [],
      "name": "sendAllProviderBalances",
      "outputs": [],
      "payable": true,
      "stateMutability": "payable",
      "type": "function"
    },
    {
      "constant": false,
      "inputs": [
        {
          "name": "providerAddress",
          "type": "address"
        }
      ],
      "name": "userPayForTrip",
      "outputs": [],
      "payable": false,
      "stateMutability": "nonpayable",
      "type": "function"
    },
    {
      "constant": true,
      "inputs": [],
      "name": "getUserBalance",
      "outputs": [
        {
          "name": "ret",
          "type": "uint256"
        }
      ],
      "payable": false,
      "stateMutability": "view",
      "type": "function"
    },
    {
      "constant": true,
      "inputs": [],
      "name": "getProviderBalance",
      "outputs": [
        {
          "name": "ret",
          "type": "uint256"
        }
      ],
      "payable": false,
      "stateMutability": "view",
      "type": "function"
    },
    {
      "constant": false,
      "inputs": [
        {
          "name": "cost",
          "type": "uint256"
        }
      ],
      "name": "setProviderCost",
      "outputs": [],
      "payable": false,
      "stateMutability": "nonpayable",
      "type": "function"
    },
    {
      "constant": true,
      "inputs": [],
      "name": "getProviderCost",
      "outputs": [
        {
          "name": "ret",
          "type": "uint256"
        }
      ],
      "payable": false,
      "stateMutability": "view",
      "type": "function"
    }
  ],
  "bytecode": "0x608060405234801561001057600080fd5b50336000806101000a81548173ffffffffffffffffffffffffffffffffffffffff021916908373ffffffffffffffffffffffffffffffffffffffff16021790555060006003819055506000600681905550611a9e806100706000396000f3fe6080604052600436106100e85760003560e01c806350f3fc811161008a5780639d7d1725116100595780639d7d17251461045b5780639e2176f914610465578063aa836a0014610493578063b7013dc1146104be576100e8565b806350f3fc81146103845780636c274b54146103ff5780637a0a8f1d1461040957806392753bb414610444576100e8565b80633b9056bf116100c65780633b9056bf1461022b5780633cff56421461025957806345d5ce25146102aa5780634c67da9b146102e5576100e8565b80630560ab69146100ed5780631c681d9914610185578063365b98b2146101b0575b600080fd5b3480156100f957600080fd5b5061013c6004803603602081101561011057600080fd5b81019080803573ffffffffffffffffffffffffffffffffffffffff1690602001909291905050506104e9565b604051808373ffffffffffffffffffffffffffffffffffffffff1673ffffffffffffffffffffffffffffffffffffffff1681526020018281526020019250505060405180910390f35b34801561019157600080fd5b5061019a61052d565b6040518082815260200191505060405180910390f35b3480156101bc57600080fd5b506101e9600480360360208110156101d357600080fd5b810190808035906020019092919050505061067e565b604051808273ffffffffffffffffffffffffffffffffffffffff1673ffffffffffffffffffffffffffffffffffffffff16815260200191505060405180910390f35b6102576004803603602081101561024157600080fd5b81019080803590602001909291905050506106ba565b005b34801561026557600080fd5b506102a86004803603602081101561027c57600080fd5b81019080803573ffffffffffffffffffffffffffffffffffffffff1690602001909291905050506108a5565b005b3480156102b657600080fd5b506102e3600480360360208110156102cd57600080fd5b8101908080359060200190929190505050610bda565b005b3480156102f157600080fd5b506103346004803603602081101561030857600080fd5b81019080803573ffffffffffffffffffffffffffffffffffffffff169060200190929190505050610e05565b604051808473ffffffffffffffffffffffffffffffffffffffff1673ffffffffffffffffffffffffffffffffffffffff168152602001838152602001828152602001935050505060405180910390f35b34801561039057600080fd5b506103bd600480360360208110156103a757600080fd5b8101908080359060200190929190505050610e4f565b604051808273ffffffffffffffffffffffffffffffffffffffff1673ffffffffffffffffffffffffffffffffffffffff16815260200191505060405180910390f35b610407610e8b565b005b34801561041557600080fd5b506104426004803603602081101561042c57600080fd5b810190808035906020019092919050505061112a565b005b34801561045057600080fd5b5061045961127b565b005b61046361145e565b005b6104916004803603602081101561047b57600080fd5b81019080803590602001909291905050506115b7565b005b34801561049f57600080fd5b506104a86117a2565b6040518082815260200191505060405180910390f35b3480156104ca57600080fd5b506104d36118f3565b6040518082815260200191505060405180910390f35b60016020528060005260406000206000915090508060000160009054906101000a900473ffffffffffffffffffffffffffffffffffffffff16908060010154905082565b600033600073ffffffffffffffffffffffffffffffffffffffff16600460008373ffffffffffffffffffffffffffffffffffffffff1673ffffffffffffffffffffffffffffffffffffffff16815260200190815260200160002060000160009054906101000a900473ffffffffffffffffffffffffffffffffffffffff1673ffffffffffffffffffffffffffffffffffffffff161415610635576040517f08c379a00000000000000000000000000000000000000000000000000000000081526004018080602001828103825260168152602001807f50726f7669646572206e6f74207369676e65642075700000000000000000000081525060200191505060405180910390fd5b600460003373ffffffffffffffffffffffffffffffffffffffff1673ffffffffffffffffffffffffffffffffffffffff1681526020019081526020016000206001015491505090565b6002818154811061068b57fe5b906000526020600020016000915054906101000a900473ffffffffffffffffffffffffffffffffffffffff1681565b33600073ffffffffffffffffffffffffffffffffffffffff16600160008373ffffffffffffffffffffffffffffffffffffffff1673ffffffffffffffffffffffffffffffffffffffff16815260200190815260200160002060000160009054906101000a900473ffffffffffffffffffffffffffffffffffffffff1673ffffffffffffffffffffffffffffffffffffffff1614156107c0576040517f08c379a00000000000000000000000000000000000000000000000000000000081526004018080602001828103825260128152602001807f55736572206e6f74207369676e6564207570000000000000000000000000000081525060200191505060405180910390fd5b81600160003373ffffffffffffffffffffffffffffffffffffffff1673ffffffffffffffffffffffffffffffffffffffff16815260200190815260200160002060010154106108a15781600160003373ffffffffffffffffffffffffffffffffffffffff1673ffffffffffffffffffffffffffffffffffffffff168152602001908152602001600020600101600082825403925050819055503373ffffffffffffffffffffffffffffffffffffffff166108fc839081150290604051600060405180830381858888f1935050505015801561089f573d6000803e3d6000fd5b505b5050565b33600073ffffffffffffffffffffffffffffffffffffffff16600160008373ffffffffffffffffffffffffffffffffffffffff1673ffffffffffffffffffffffffffffffffffffffff16815260200190815260200160002060000160009054906101000a900473ffffffffffffffffffffffffffffffffffffffff1673ffffffffffffffffffffffffffffffffffffffff1614156109ab576040517f08c379a00000000000000000000000000000000000000000000000000000000081526004018080602001828103825260128152602001807f55736572206e6f74207369676e6564207570000000000000000000000000000081525060200191505060405180910390fd5b81600073ffffffffffffffffffffffffffffffffffffffff16600460008373ffffffffffffffffffffffffffffffffffffffff1673ffffffffffffffffffffffffffffffffffffffff16815260200190815260200160002060000160009054906101000a900473ffffffffffffffffffffffffffffffffffffffff1673ffffffffffffffffffffffffffffffffffffffff161415610ab1576040517f08c379a00000000000000000000000000000000000000000000000000000000081526004018080602001828103825260168152602001807f50726f7669646572206e6f74207369676e65642075700000000000000000000081525060200191505060405180910390fd5b600460008473ffffffffffffffffffffffffffffffffffffffff1673ffffffffffffffffffffffffffffffffffffffff16815260200190815260200160002060020154600460008573ffffffffffffffffffffffffffffffffffffffff1673ffffffffffffffffffffffffffffffffffffffff16815260200190815260200160002060010160008282540192505081905550600460008473ffffffffffffffffffffffffffffffffffffffff1673ffffffffffffffffffffffffffffffffffffffff16815260200190815260200160002060020154600160003373ffffffffffffffffffffffffffffffffffffffff1673ffffffffffffffffffffffffffffffffffffffff16815260200190815260200160002060010160008282540392505081905550505050565b33600073ffffffffffffffffffffffffffffffffffffffff16600460008373ffffffffffffffffffffffffffffffffffffffff1673ffffffffffffffffffffffffffffffffffffffff16815260200190815260200160002060000160009054906101000a900473ffffffffffffffffffffffffffffffffffffffff1673ffffffffffffffffffffffffffffffffffffffff1614610cdf576040517f08c379a000000000000000000000000000000000000000000000000000000000815260040180806020018281038252601a8152602001807f50726f766964657220616c7265616479207369676e656420757000000000000081525060200191505060405180910390fd5b33600460003373ffffffffffffffffffffffffffffffffffffffff1673ffffffffffffffffffffffffffffffffffffffff16815260200190815260200160002060000160006101000a81548173ffffffffffffffffffffffffffffffffffffffff021916908373ffffffffffffffffffffffffffffffffffffffff1602179055506000600460003373ffffffffffffffffffffffffffffffffffffffff1673ffffffffffffffffffffffffffffffffffffffff1681526020019081526020016000206001018190555081600460003373ffffffffffffffffffffffffffffffffffffffff1673ffffffffffffffffffffffffffffffffffffffff168152602001908152602001600020600201819055506006600081548092919060010191905055505050565b60046020528060005260406000206000915090508060000160009054906101000a900473ffffffffffffffffffffffffffffffffffffffff16908060010154908060020154905083565b60058181548110610e5c57fe5b906000526020600020016000915054906101000a900473ffffffffffffffffffffffffffffffffffffffff1681565b336000809054906101000a900473ffffffffffffffffffffffffffffffffffffffff1673ffffffffffffffffffffffffffffffffffffffff168173ffffffffffffffffffffffffffffffffffffffff1614610f31576040517f08c379a000000000000000000000000000000000000000000000000000000000815260040180806020018281038252602e815260200180611a45602e913960400191505060405180910390fd5b60008090505b600354811015611126576004600060058381548110610f5257fe5b9060005260206000200160009054906101000a900473ffffffffffffffffffffffffffffffffffffffff1673ffffffffffffffffffffffffffffffffffffffff1673ffffffffffffffffffffffffffffffffffffffff16815260200190815260200160002060000160009054906101000a900473ffffffffffffffffffffffffffffffffffffffff1673ffffffffffffffffffffffffffffffffffffffff166108fc600460006005858154811061100557fe5b9060005260206000200160009054906101000a900473ffffffffffffffffffffffffffffffffffffffff1673ffffffffffffffffffffffffffffffffffffffff1673ffffffffffffffffffffffffffffffffffffffff168152602001908152602001600020600101549081150290604051600060405180830381858888f19350505050158015611099573d6000803e3d6000fd5b50600060046000600584815481106110ad57fe5b9060005260206000200160009054906101000a900473ffffffffffffffffffffffffffffffffffffffff1673ffffffffffffffffffffffffffffffffffffffff1673ffffffffffffffffffffffffffffffffffffffff168152602001908152602001600020600101819055508080600101915050610f37565b5050565b33600073ffffffffffffffffffffffffffffffffffffffff16600460008373ffffffffffffffffffffffffffffffffffffffff1673ffffffffffffffffffffffffffffffffffffffff16815260200190815260200160002060000160009054906101000a900473ffffffffffffffffffffffffffffffffffffffff1673ffffffffffffffffffffffffffffffffffffffff161415611230576040517f08c379a00000000000000000000000000000000000000000000000000000000081526004018080602001828103825260168152602001807f50726f7669646572206e6f74207369676e65642075700000000000000000000081525060200191505060405180910390fd5b81600460003373ffffffffffffffffffffffffffffffffffffffff1673ffffffffffffffffffffffffffffffffffffffff168152602001908152602001600020600201819055505050565b33600073ffffffffffffffffffffffffffffffffffffffff16600160008373ffffffffffffffffffffffffffffffffffffffff1673ffffffffffffffffffffffffffffffffffffffff16815260200190815260200160002060000160009054906101000a900473ffffffffffffffffffffffffffffffffffffffff1673ffffffffffffffffffffffffffffffffffffffff1614611380576040517f08c379a00000000000000000000000000000000000000000000000000000000081526004018080602001828103825260168152602001807f5573657220616c7265616479207369676e65642075700000000000000000000081525060200191505060405180910390fd5b33600160003373ffffffffffffffffffffffffffffffffffffffff1673ffffffffffffffffffffffffffffffffffffffff16815260200190815260200160002060000160006101000a81548173ffffffffffffffffffffffffffffffffffffffff021916908373ffffffffffffffffffffffffffffffffffffffff1602179055506000600160003373ffffffffffffffffffffffffffffffffffffffff1673ffffffffffffffffffffffffffffffffffffffff1681526020019081526020016000206001018190555060036000815480929190600101919050555050565b33600073ffffffffffffffffffffffffffffffffffffffff16600160008373ffffffffffffffffffffffffffffffffffffffff1673ffffffffffffffffffffffffffffffffffffffff16815260200190815260200160002060000160009054906101000a900473ffffffffffffffffffffffffffffffffffffffff1673ffffffffffffffffffffffffffffffffffffffff161415611564576040517f08c379a00000000000000000000000000000000000000000000000000000000081526004018080602001828103825260128152602001807f55736572206e6f74207369676e6564207570000000000000000000000000000081525060200191505060405180910390fd5b34600160003373ffffffffffffffffffffffffffffffffffffffff1673ffffffffffffffffffffffffffffffffffffffff1681526020019081526020016000206001016000828254019250508190555050565b33600073ffffffffffffffffffffffffffffffffffffffff16600460008373ffffffffffffffffffffffffffffffffffffffff1673ffffffffffffffffffffffffffffffffffffffff16815260200190815260200160002060000160009054906101000a900473ffffffffffffffffffffffffffffffffffffffff1673ffffffffffffffffffffffffffffffffffffffff1614156116bd576040517f08c379a00000000000000000000000000000000000000000000000000000000081526004018080602001828103825260168152602001807f50726f7669646572206e6f74207369676e65642075700000000000000000000081525060200191505060405180910390fd5b81600460003373ffffffffffffffffffffffffffffffffffffffff1673ffffffffffffffffffffffffffffffffffffffff168152602001908152602001600020600101541061179e5781600460003373ffffffffffffffffffffffffffffffffffffffff1673ffffffffffffffffffffffffffffffffffffffff168152602001908152602001600020600101600082825403925050819055503373ffffffffffffffffffffffffffffffffffffffff166108fc839081150290604051600060405180830381858888f1935050505015801561179c573d6000803e3d6000fd5b505b5050565b600033600073ffffffffffffffffffffffffffffffffffffffff16600460008373ffffffffffffffffffffffffffffffffffffffff1673ffffffffffffffffffffffffffffffffffffffff16815260200190815260200160002060000160009054906101000a900473ffffffffffffffffffffffffffffffffffffffff1673ffffffffffffffffffffffffffffffffffffffff1614156118aa576040517f08c379a00000000000000000000000000000000000000000000000000000000081526004018080602001828103825260168152602001807f50726f7669646572206e6f74207369676e65642075700000000000000000000081525060200191505060405180910390fd5b600460003373ffffffffffffffffffffffffffffffffffffffff1673ffffffffffffffffffffffffffffffffffffffff1681526020019081526020016000206002015491505090565b600033600073ffffffffffffffffffffffffffffffffffffffff16600160008373ffffffffffffffffffffffffffffffffffffffff1673ffffffffffffffffffffffffffffffffffffffff16815260200190815260200160002060000160009054906101000a900473ffffffffffffffffffffffffffffffffffffffff1673ffffffffffffffffffffffffffffffffffffffff1614156119fb576040517f08c379a00000000000000000000000000000000000000000000000000000000081526004018080602001828103825260128152602001807f55736572206e6f74207369676e6564207570000000000000000000000000000081525060200191505060405180910390fd5b600160003373ffffffffffffffffffffffffffffffffffffffff1673ffffffffffffffffffffffffffffffffffffffff168152602001908152602001600020600101549150509056fe4f6e6c792074686520636f6e7472616374206f776e6572206d61792063616c6c20746869732066756e6374696f6ea165627a7a72305820f1e0c8f5dc261ee7b5841725abc82c43c9a2939943ced91882714e9d95ae5ab70029",
  "source": "pragma solidity 0.5.8;\n\ncontract PaymentManager {\n\n    address owner;\n\n    struct User {\n        address payable referenceAddress;\n        uint256 balance;\n    }\n\n    struct Provider {\n        address payable referenceAddress;\n        uint256 balance;\n        uint256 cost;\n    }\n\n    mapping(address => User) public usersData;\n    address[] public users;\n    uint256 totalUsers;\n\n    mapping(address => Provider) public providersData;\n    address[] public providers;\n    uint256 totalProviders;\n\n    modifier userSignedUp(address sender){\n        require(usersData[sender].referenceAddress != address(0),\n        \"User not signed up\");\n        _;\n    }\n\n    modifier userNotSignedUp(address sender){\n        require(usersData[sender].referenceAddress == address(0),\n        \"User already signed up\");\n        _;\n    }\n\n    modifier providerSignedUp(address sender){\n        require(providersData[sender].referenceAddress != address(0),\n        \"Provider not signed up\");\n        _;\n    }\n\n    modifier providerNotSignedUp(address sender){\n        require(providersData[sender].referenceAddress == address(0),\n        \"Provider already signed up\");\n        _;\n    }\n\n    modifier isOwner(address sender){\n        require(sender==owner,\n        \"Only the contract owner may call this function\");\n        _;\n    }\n\n    constructor() public {\n        owner = msg.sender;\n        totalUsers = 0;\n        totalProviders = 0;\n    }\n\n    // Adding user's address to global array\n    function userSignup() public userNotSignedUp(msg.sender) {\n        usersData[msg.sender].referenceAddress = msg.sender;\n        usersData[msg.sender].balance = 0;\n        totalUsers++;\n    }\n\n    // Same but for the provider\n    function providerSignUp(uint256 cost) public providerNotSignedUp(msg.sender) {\n        providersData[msg.sender].referenceAddress = msg.sender;\n        providersData[msg.sender].balance = 0;\n        providersData[msg.sender].cost = cost;\n        totalProviders++;\n    }\n    \n    // Top up\n    function userTopUp() public userSignedUp(msg.sender) payable {\n        usersData[msg.sender].balance += msg.value;\n    }\n\n    function userWithdraw(uint256 value) public userSignedUp(msg.sender) payable {\n        if(usersData[msg.sender].balance >= value){\n            usersData[msg.sender].balance -= value;\n            msg.sender.transfer(value);\n        }\n    }\n\n    // Provider gets his money\n    function providerWithdraw(uint256 value) public providerSignedUp(msg.sender)  payable {\n        if(providersData[msg.sender].balance >= value){\n            providersData[msg.sender].balance -= value;\n            msg.sender.transfer(value);\n        }\n    }\n\n    // Send all outstanding balances to providers\n    function sendAllProviderBalances() public isOwner(msg.sender) payable {\n        for(uint256 i = 0; i < totalUsers; i++){\n            providersData[providers[i]].referenceAddress.transfer(providersData[providers[i]].balance);\n            providersData[providers[i]].balance = 0;\n        }\n    }\n\n    // Update the balances for both users and providers\n    function userPayForTrip(address providerAddress) public userSignedUp(msg.sender) providerSignedUp(providerAddress) {\n        providersData[providerAddress].balance += providersData[providerAddress].cost;\n        usersData[msg.sender].balance -= providersData[providerAddress].cost;\n    }\n\n    function getUserBalance() public view userSignedUp(msg.sender) returns (uint256 ret) {\n        return usersData[msg.sender].balance;\n    }\n\n    function getProviderBalance() public view providerSignedUp(msg.sender) returns (uint256 ret) {\n        return providersData[msg.sender].balance;\n    }\n\n    function setProviderCost(uint256 cost) public providerSignedUp(msg.sender) {\n        providersData[msg.sender].cost = cost;\n    }\n\n    function getProviderCost() public view providerSignedUp(msg.sender) returns (uint256 ret) {\n        return providersData[msg.sender].cost;\n    }\n\n}",
  "sourcePath": "/Users/stan/Repos/sbhack-team45/payment-manager/contracts/PaymentManager.sol",
  "compiler": {
    "name": "solc",
    "version": "0.5.8+commit.23d335f2.Emscripten.clang"
  },
  "schemaVersion": "3.0.11",
  "updatedAt": "2019-06-22T17:28:22.287Z",
  "devdoc": {
    "methods": {}
  },
  "userdoc": {
    "methods": {}
  }
}