{
  "contractName": "PaymentManager",
  "abi": [
    {
      "constant": true,
      "inputs": [
        {
          "name": "",
          "type": "address"
        }
      ],
      "name": "usersData",
      "outputs": [
        {
          "name": "referenceAddress",
          "type": "address"
        },
        {
          "name": "balance",
          "type": "uint256"
        }
      ],
      "payable": false,
      "stateMutability": "view",
      "type": "function"
    },
    {
      "constant": true,
      "inputs": [
        {
          "name": "",
          "type": "uint256"
        }
      ],
      "name": "users",
      "outputs": [
        {
          "name": "",
          "type": "address"
        }
      ],
      "payable": false,
      "stateMutability": "view",
      "type": "function"
    },
    {
      "constant": true,
      "inputs": [
        {
          "name": "",
          "type": "address"
        }
      ],
      "name": "providersData",
      "outputs": [
        {
          "name": "referenceAddress",
          "type": "address"
        },
        {
          "name": "name",
          "type": "string"
        },
        {
          "name": "balance",
          "type": "uint256"
        },
        {
          "name": "cost",
          "type": "uint256"
        }
      ],
      "payable": false,
      "stateMutability": "view",
      "type": "function"
    },
    {
      "constant": true,
      "inputs": [
        {
          "name": "",
          "type": "uint256"
        }
      ],
      "name": "providers",
      "outputs": [
        {
          "name": "",
          "type": "address"
        }
      ],
      "payable": false,
      "stateMutability": "view",
      "type": "function"
    },
    {
      "inputs": [],
      "payable": false,
      "stateMutability": "nonpayable",
      "type": "constructor"
    },
    {
      "constant": false,
      "inputs": [],
      "name": "userSignup",
      "outputs": [],
      "payable": false,
      "stateMutability": "nonpayable",
      "type": "function"
    },
    {
      "constant": false,
      "inputs": [
        {
          "name": "cost",
          "type": "uint256"
        },
        {
          "name": "name",
          "type": "string"
        }
      ],
      "name": "providerSignUp",
      "outputs": [],
      "payable": false,
      "stateMutability": "nonpayable",
      "type": "function"
    },
    {
      "constant": false,
      "inputs": [],
      "name": "userTopUp",
      "outputs": [],
      "payable": true,
      "stateMutability": "payable",
      "type": "function"
    },
    {
      "constant": false,
      "inputs": [
        {
          "name": "value",
          "type": "uint256"
        }
      ],
      "name": "userWithdraw",
      "outputs": [],
      "payable": true,
      "stateMutability": "payable",
      "type": "function"
    },
    {
      "constant": false,
      "inputs": [
        {
          "name": "value",
          "type": "uint256"
        }
      ],
      "name": "providerWithdraw",
      "outputs": [],
      "payable": true,
      "stateMutability": "payable",
      "type": "function"
    },
    {
      "constant": false,
      "inputs": [],
      "name": "sendAllProviderBalances",
      "outputs": [],
      "payable": true,
      "stateMutability": "payable",
      "type": "function"
    },
    {
      "constant": false,
      "inputs": [
        {
          "name": "providerAddress",
          "type": "address"
        }
      ],
      "name": "userPayForTrip",
      "outputs": [],
      "payable": false,
      "stateMutability": "nonpayable",
      "type": "function"
    },
    {
      "constant": true,
      "inputs": [],
      "name": "getUserBalance",
      "outputs": [
        {
          "name": "ret",
          "type": "uint256"
        }
      ],
      "payable": false,
      "stateMutability": "view",
      "type": "function"
    },
    {
      "constant": true,
      "inputs": [],
      "name": "getProviderBalance",
      "outputs": [
        {
          "name": "ret",
          "type": "uint256"
        }
      ],
      "payable": false,
      "stateMutability": "view",
      "type": "function"
    },
    {
      "constant": false,
      "inputs": [
        {
          "name": "cost",
          "type": "uint256"
        }
      ],
      "name": "setProviderCost",
      "outputs": [],
      "payable": false,
      "stateMutability": "nonpayable",
      "type": "function"
    },
    {
      "constant": true,
      "inputs": [],
      "name": "getProviderCost",
      "outputs": [
        {
          "name": "ret",
          "type": "uint256"
        }
      ],
      "payable": false,
      "stateMutability": "view",
      "type": "function"
    },
    {
      "constant": true,
      "inputs": [
        {
          "name": "providerAddress",
          "type": "address"
        }
      ],
      "name": "getProviderData",
      "outputs": [
        {
          "name": "name",
          "type": "string"
        },
        {
          "name": "cost",
          "type": "uint256"
        }
      ],
      "payable": false,
      "stateMutability": "view",
      "type": "function"
    }
  ],
  "bytecode": "0x608060405234801561001057600080fd5b50336000806101000a81548173ffffffffffffffffffffffffffffffffffffffff021916908373ffffffffffffffffffffffffffffffffffffffff1602179055506000600381905550600060068190555061204a806100706000396000f3fe6080604052600436106100f35760003560e01c80637a0a8f1d1161008a5780639e2176f9116100595780639e2176f914610573578063aa836a00146105a1578063b7013dc1146105cc578063fc2d64e3146105f7576100f3565b80637a0a8f1d14610445578063807a1ea71461048057806392753bb4146105525780639d7d172514610569576100f3565b80633cff5642116100c65780633cff5642146102645780634c67da9b146102b557806350f3fc81146103c05780636c274b541461043b576100f3565b80630560ab69146100f85780631c681d9914610190578063365b98b2146101bb5780633b9056bf14610236575b600080fd5b34801561010457600080fd5b506101476004803603602081101561011b57600080fd5b81019080803573ffffffffffffffffffffffffffffffffffffffff1690602001909291905050506106c8565b604051808373ffffffffffffffffffffffffffffffffffffffff1673ffffffffffffffffffffffffffffffffffffffff1681526020018281526020019250505060405180910390f35b34801561019c57600080fd5b506101a561070c565b6040518082815260200191505060405180910390f35b3480156101c757600080fd5b506101f4600480360360208110156101de57600080fd5b810190808035906020019092919050505061085d565b604051808273ffffffffffffffffffffffffffffffffffffffff1673ffffffffffffffffffffffffffffffffffffffff16815260200191505060405180910390f35b6102626004803603602081101561024c57600080fd5b8101908080359060200190929190505050610899565b005b34801561027057600080fd5b506102b36004803603602081101561028757600080fd5b81019080803573ffffffffffffffffffffffffffffffffffffffff169060200190929190505050610a84565b005b3480156102c157600080fd5b50610304600480360360208110156102d857600080fd5b81019080803573ffffffffffffffffffffffffffffffffffffffff169060200190929190505050610db9565b604051808573ffffffffffffffffffffffffffffffffffffffff1673ffffffffffffffffffffffffffffffffffffffff16815260200180602001848152602001838152602001828103825285818151815260200191508051906020019080838360005b83811015610382578082015181840152602081019050610367565b50505050905090810190601f1680156103af5780820380516001836020036101000a031916815260200191505b509550505050505060405180910390f35b3480156103cc57600080fd5b506103f9600480360360208110156103e357600080fd5b8101908080359060200190929190505050610ea1565b604051808273ffffffffffffffffffffffffffffffffffffffff1673ffffffffffffffffffffffffffffffffffffffff16815260200191505060405180910390f35b610443610edd565b005b34801561045157600080fd5b5061047e6004803603602081101561046857600080fd5b810190808035906020019092919050505061117c565b005b34801561048c57600080fd5b50610550600480360360408110156104a357600080fd5b8101908080359060200190929190803590602001906401000000008111156104ca57600080fd5b8201836020820111156104dc57600080fd5b803590602001918460018302840111640100000000831117156104fe57600080fd5b91908080601f016020809104026020016040519081016040528093929190818152602001838380828437600081840152601f19601f8201169050808301925050505050505091929192905050506112cd565b005b34801561055e57600080fd5b50610567611550565b005b610571611733565b005b61059f6004803603602081101561058957600080fd5b810190808035906020019092919050505061188c565b005b3480156105ad57600080fd5b506105b6611a77565b6040518082815260200191505060405180910390f35b3480156105d857600080fd5b506105e1611bc8565b6040518082815260200191505060405180910390f35b34801561060357600080fd5b506106466004803603602081101561061a57600080fd5b81019080803573ffffffffffffffffffffffffffffffffffffffff169060200190929190505050611d19565b6040518080602001838152602001828103825284818151815260200191508051906020019080838360005b8381101561068c578082015181840152602081019050610671565b50505050905090810190601f1680156106b95780820380516001836020036101000a031916815260200191505b50935050505060405180910390f35b60016020528060005260406000206000915090508060000160009054906101000a900473ffffffffffffffffffffffffffffffffffffffff16908060010154905082565b600033600073ffffffffffffffffffffffffffffffffffffffff16600460008373ffffffffffffffffffffffffffffffffffffffff1673ffffffffffffffffffffffffffffffffffffffff16815260200190815260200160002060000160009054906101000a900473ffffffffffffffffffffffffffffffffffffffff1673ffffffffffffffffffffffffffffffffffffffff161415610814576040517f08c379a00000000000000000000000000000000000000000000000000000000081526004018080602001828103825260168152602001807f50726f7669646572206e6f74207369676e65642075700000000000000000000081525060200191505060405180910390fd5b600460003373ffffffffffffffffffffffffffffffffffffffff1673ffffffffffffffffffffffffffffffffffffffff1681526020019081526020016000206002015491505090565b6002818154811061086a57fe5b906000526020600020016000915054906101000a900473ffffffffffffffffffffffffffffffffffffffff1681565b33600073ffffffffffffffffffffffffffffffffffffffff16600160008373ffffffffffffffffffffffffffffffffffffffff1673ffffffffffffffffffffffffffffffffffffffff16815260200190815260200160002060000160009054906101000a900473ffffffffffffffffffffffffffffffffffffffff1673ffffffffffffffffffffffffffffffffffffffff16141561099f576040517f08c379a00000000000000000000000000000000000000000000000000000000081526004018080602001828103825260128152602001807f55736572206e6f74207369676e6564207570000000000000000000000000000081525060200191505060405180910390fd5b81600160003373ffffffffffffffffffffffffffffffffffffffff1673ffffffffffffffffffffffffffffffffffffffff1681526020019081526020016000206001015410610a805781600160003373ffffffffffffffffffffffffffffffffffffffff1673ffffffffffffffffffffffffffffffffffffffff168152602001908152602001600020600101600082825403925050819055503373ffffffffffffffffffffffffffffffffffffffff166108fc839081150290604051600060405180830381858888f19350505050158015610a7e573d6000803e3d6000fd5b505b5050565b33600073ffffffffffffffffffffffffffffffffffffffff16600160008373ffffffffffffffffffffffffffffffffffffffff1673ffffffffffffffffffffffffffffffffffffffff16815260200190815260200160002060000160009054906101000a900473ffffffffffffffffffffffffffffffffffffffff1673ffffffffffffffffffffffffffffffffffffffff161415610b8a576040517f08c379a00000000000000000000000000000000000000000000000000000000081526004018080602001828103825260128152602001807f55736572206e6f74207369676e6564207570000000000000000000000000000081525060200191505060405180910390fd5b81600073ffffffffffffffffffffffffffffffffffffffff16600460008373ffffffffffffffffffffffffffffffffffffffff1673ffffffffffffffffffffffffffffffffffffffff16815260200190815260200160002060000160009054906101000a900473ffffffffffffffffffffffffffffffffffffffff1673ffffffffffffffffffffffffffffffffffffffff161415610c90576040517f08c379a00000000000000000000000000000000000000000000000000000000081526004018080602001828103825260168152602001807f50726f7669646572206e6f74207369676e65642075700000000000000000000081525060200191505060405180910390fd5b600460008473ffffffffffffffffffffffffffffffffffffffff1673ffffffffffffffffffffffffffffffffffffffff16815260200190815260200160002060030154600460008573ffffffffffffffffffffffffffffffffffffffff1673ffffffffffffffffffffffffffffffffffffffff16815260200190815260200160002060020160008282540192505081905550600460008473ffffffffffffffffffffffffffffffffffffffff1673ffffffffffffffffffffffffffffffffffffffff16815260200190815260200160002060030154600160003373ffffffffffffffffffffffffffffffffffffffff1673ffffffffffffffffffffffffffffffffffffffff16815260200190815260200160002060010160008282540392505081905550505050565b60046020528060005260406000206000915090508060000160009054906101000a900473ffffffffffffffffffffffffffffffffffffffff1690806001018054600181600116156101000203166002900480601f016020809104026020016040519081016040528092919081815260200182805460018160011615610100020316600290048015610e8b5780601f10610e6057610100808354040283529160200191610e8b565b820191906000526020600020905b815481529060010190602001808311610e6e57829003601f168201915b5050505050908060020154908060030154905084565b60058181548110610eae57fe5b906000526020600020016000915054906101000a900473ffffffffffffffffffffffffffffffffffffffff1681565b336000809054906101000a900473ffffffffffffffffffffffffffffffffffffffff1673ffffffffffffffffffffffffffffffffffffffff168173ffffffffffffffffffffffffffffffffffffffff1614610f83576040517f08c379a000000000000000000000000000000000000000000000000000000000815260040180806020018281038252602e815260200180611ff1602e913960400191505060405180910390fd5b60008090505b600354811015611178576004600060058381548110610fa457fe5b9060005260206000200160009054906101000a900473ffffffffffffffffffffffffffffffffffffffff1673ffffffffffffffffffffffffffffffffffffffff1673ffffffffffffffffffffffffffffffffffffffff16815260200190815260200160002060000160009054906101000a900473ffffffffffffffffffffffffffffffffffffffff1673ffffffffffffffffffffffffffffffffffffffff166108fc600460006005858154811061105757fe5b9060005260206000200160009054906101000a900473ffffffffffffffffffffffffffffffffffffffff1673ffffffffffffffffffffffffffffffffffffffff1673ffffffffffffffffffffffffffffffffffffffff168152602001908152602001600020600201549081150290604051600060405180830381858888f193505050501580156110eb573d6000803e3d6000fd5b50600060046000600584815481106110ff57fe5b9060005260206000200160009054906101000a900473ffffffffffffffffffffffffffffffffffffffff1673ffffffffffffffffffffffffffffffffffffffff1673ffffffffffffffffffffffffffffffffffffffff168152602001908152602001600020600201819055508080600101915050610f89565b5050565b33600073ffffffffffffffffffffffffffffffffffffffff16600460008373ffffffffffffffffffffffffffffffffffffffff1673ffffffffffffffffffffffffffffffffffffffff16815260200190815260200160002060000160009054906101000a900473ffffffffffffffffffffffffffffffffffffffff1673ffffffffffffffffffffffffffffffffffffffff161415611282576040517f08c379a00000000000000000000000000000000000000000000000000000000081526004018080602001828103825260168152602001807f50726f7669646572206e6f74207369676e65642075700000000000000000000081525060200191505060405180910390fd5b81600460003373ffffffffffffffffffffffffffffffffffffffff1673ffffffffffffffffffffffffffffffffffffffff168152602001908152602001600020600301819055505050565b33600073ffffffffffffffffffffffffffffffffffffffff16600460008373ffffffffffffffffffffffffffffffffffffffff1673ffffffffffffffffffffffffffffffffffffffff16815260200190815260200160002060000160009054906101000a900473ffffffffffffffffffffffffffffffffffffffff1673ffffffffffffffffffffffffffffffffffffffff16146113d2576040517f08c379a000000000000000000000000000000000000000000000000000000000815260040180806020018281038252601a8152602001807f50726f766964657220616c7265616479207369676e656420757000000000000081525060200191505060405180910390fd5b33600460003373ffffffffffffffffffffffffffffffffffffffff1673ffffffffffffffffffffffffffffffffffffffff16815260200190815260200160002060000160006101000a81548173ffffffffffffffffffffffffffffffffffffffff021916908373ffffffffffffffffffffffffffffffffffffffff1602179055506000600460003373ffffffffffffffffffffffffffffffffffffffff1673ffffffffffffffffffffffffffffffffffffffff1681526020019081526020016000206002018190555082600460003373ffffffffffffffffffffffffffffffffffffffff1673ffffffffffffffffffffffffffffffffffffffff1681526020019081526020016000206003018190555081600460003373ffffffffffffffffffffffffffffffffffffffff1673ffffffffffffffffffffffffffffffffffffffff1681526020019081526020016000206001019080519060200190611538929190611f4b565b50600660008154809291906001019190505550505050565b33600073ffffffffffffffffffffffffffffffffffffffff16600160008373ffffffffffffffffffffffffffffffffffffffff1673ffffffffffffffffffffffffffffffffffffffff16815260200190815260200160002060000160009054906101000a900473ffffffffffffffffffffffffffffffffffffffff1673ffffffffffffffffffffffffffffffffffffffff1614611655576040517f08c379a00000000000000000000000000000000000000000000000000000000081526004018080602001828103825260168152602001807f5573657220616c7265616479207369676e65642075700000000000000000000081525060200191505060405180910390fd5b33600160003373ffffffffffffffffffffffffffffffffffffffff1673ffffffffffffffffffffffffffffffffffffffff16815260200190815260200160002060000160006101000a81548173ffffffffffffffffffffffffffffffffffffffff021916908373ffffffffffffffffffffffffffffffffffffffff1602179055506000600160003373ffffffffffffffffffffffffffffffffffffffff1673ffffffffffffffffffffffffffffffffffffffff1681526020019081526020016000206001018190555060036000815480929190600101919050555050565b33600073ffffffffffffffffffffffffffffffffffffffff16600160008373ffffffffffffffffffffffffffffffffffffffff1673ffffffffffffffffffffffffffffffffffffffff16815260200190815260200160002060000160009054906101000a900473ffffffffffffffffffffffffffffffffffffffff1673ffffffffffffffffffffffffffffffffffffffff161415611839576040517f08c379a00000000000000000000000000000000000000000000000000000000081526004018080602001828103825260128152602001807f55736572206e6f74207369676e6564207570000000000000000000000000000081525060200191505060405180910390fd5b34600160003373ffffffffffffffffffffffffffffffffffffffff1673ffffffffffffffffffffffffffffffffffffffff1681526020019081526020016000206001016000828254019250508190555050565b33600073ffffffffffffffffffffffffffffffffffffffff16600460008373ffffffffffffffffffffffffffffffffffffffff1673ffffffffffffffffffffffffffffffffffffffff16815260200190815260200160002060000160009054906101000a900473ffffffffffffffffffffffffffffffffffffffff1673ffffffffffffffffffffffffffffffffffffffff161415611992576040517f08c379a00000000000000000000000000000000000000000000000000000000081526004018080602001828103825260168152602001807f50726f7669646572206e6f74207369676e65642075700000000000000000000081525060200191505060405180910390fd5b81600460003373ffffffffffffffffffffffffffffffffffffffff1673ffffffffffffffffffffffffffffffffffffffff1681526020019081526020016000206002015410611a735781600460003373ffffffffffffffffffffffffffffffffffffffff1673ffffffffffffffffffffffffffffffffffffffff168152602001908152602001600020600201600082825403925050819055503373ffffffffffffffffffffffffffffffffffffffff166108fc839081150290604051600060405180830381858888f19350505050158015611a71573d6000803e3d6000fd5b505b5050565b600033600073ffffffffffffffffffffffffffffffffffffffff16600460008373ffffffffffffffffffffffffffffffffffffffff1673ffffffffffffffffffffffffffffffffffffffff16815260200190815260200160002060000160009054906101000a900473ffffffffffffffffffffffffffffffffffffffff1673ffffffffffffffffffffffffffffffffffffffff161415611b7f576040517f08c379a00000000000000000000000000000000000000000000000000000000081526004018080602001828103825260168152602001807f50726f7669646572206e6f74207369676e65642075700000000000000000000081525060200191505060405180910390fd5b600460003373ffffffffffffffffffffffffffffffffffffffff1673ffffffffffffffffffffffffffffffffffffffff1681526020019081526020016000206003015491505090565b600033600073ffffffffffffffffffffffffffffffffffffffff16600160008373ffffffffffffffffffffffffffffffffffffffff1673ffffffffffffffffffffffffffffffffffffffff16815260200190815260200160002060000160009054906101000a900473ffffffffffffffffffffffffffffffffffffffff1673ffffffffffffffffffffffffffffffffffffffff161415611cd0576040517f08c379a00000000000000000000000000000000000000000000000000000000081526004018080602001828103825260128152602001807f55736572206e6f74207369676e6564207570000000000000000000000000000081525060200191505060405180910390fd5b600160003373ffffffffffffffffffffffffffffffffffffffff1673ffffffffffffffffffffffffffffffffffffffff1681526020019081526020016000206001015491505090565b6060600033600073ffffffffffffffffffffffffffffffffffffffff16600460008373ffffffffffffffffffffffffffffffffffffffff1673ffffffffffffffffffffffffffffffffffffffff16815260200190815260200160002060000160009054906101000a900473ffffffffffffffffffffffffffffffffffffffff1673ffffffffffffffffffffffffffffffffffffffff161415611e23576040517f08c379a00000000000000000000000000000000000000000000000000000000081526004018080602001828103825260168152602001807f50726f7669646572206e6f74207369676e65642075700000000000000000000081525060200191505060405180910390fd5b600460008573ffffffffffffffffffffffffffffffffffffffff1673ffffffffffffffffffffffffffffffffffffffff1681526020019081526020016000206001018054600181600116156101000203166002900480601f016020809104026020016040519081016040528092919081815260200182805460018160011615610100020316600290048015611ef95780601f10611ece57610100808354040283529160200191611ef9565b820191906000526020600020905b815481529060010190602001808311611edc57829003601f168201915b50505050509250600460008573ffffffffffffffffffffffffffffffffffffffff1673ffffffffffffffffffffffffffffffffffffffff16815260200190815260200160002060030154915050915091565b828054600181600116156101000203166002900490600052602060002090601f016020900481019282601f10611f8c57805160ff1916838001178555611fba565b82800160010185558215611fba579182015b82811115611fb9578251825591602001919060010190611f9e565b5b509050611fc79190611fcb565b5090565b611fed91905b80821115611fe9576000816000905550600101611fd1565b5090565b9056fe4f6e6c792074686520636f6e7472616374206f776e6572206d61792063616c6c20746869732066756e6374696f6ea165627a7a7230582076d2a4795a19369ee199fe3938cac5f4fc66ccca3fc6ca722be04fb1d2e6a3940029",
  "source": "pragma solidity 0.5.8;\n\ncontract PaymentManager {\n\n    address owner;\n\n    struct User {\n        address payable referenceAddress;\n        uint256 balance;\n    }\n\n    struct Provider {\n        address payable referenceAddress;\n        string name;\n        uint256 balance;\n        uint256 cost;\n    }\n\n    mapping(address => User) public usersData;\n    address[] public users;\n    uint256 totalUsers;\n\n    mapping(address => Provider) public providersData;\n    address[] public providers;\n    uint256 totalProviders;\n\n    modifier userSignedUp(address sender){\n        require(usersData[sender].referenceAddress != address(0),\n        \"User not signed up\");\n        _;\n    }\n\n    modifier userNotSignedUp(address sender){\n        require(usersData[sender].referenceAddress == address(0),\n        \"User already signed up\");\n        _;\n    }\n\n    modifier providerSignedUp(address sender){\n        require(providersData[sender].referenceAddress != address(0),\n        \"Provider not signed up\");\n        _;\n    }\n\n    modifier providerNotSignedUp(address sender){\n        require(providersData[sender].referenceAddress == address(0),\n        \"Provider already signed up\");\n        _;\n    }\n\n    modifier isOwner(address sender){\n        require(sender==owner,\n        \"Only the contract owner may call this function\");\n        _;\n    }\n\n    constructor() public {\n        owner = msg.sender;\n        totalUsers = 0;\n        totalProviders = 0;\n    }\n\n    // Adding user's address to global array\n    function userSignup() public userNotSignedUp(msg.sender) {\n        usersData[msg.sender].referenceAddress = msg.sender;\n        usersData[msg.sender].balance = 0;\n        totalUsers++;\n    }\n\n    // Same but for the provider\n    function providerSignUp(uint256 cost, string memory name) public providerNotSignedUp(msg.sender) {\n        providersData[msg.sender].referenceAddress = msg.sender;\n        providersData[msg.sender].balance = 0;\n        providersData[msg.sender].cost = cost;\n        providersData[msg.sender].name = name;\n        totalProviders++;\n    }\n    \n    // Top up\n    function userTopUp() public userSignedUp(msg.sender) payable {\n        usersData[msg.sender].balance += msg.value;\n    }\n\n    function userWithdraw(uint256 value) public userSignedUp(msg.sender) payable {\n        if(usersData[msg.sender].balance >= value){\n            usersData[msg.sender].balance -= value;\n            msg.sender.transfer(value);\n        }\n    }\n\n    // Provider gets his money\n    function providerWithdraw(uint256 value) public providerSignedUp(msg.sender)  payable {\n        if(providersData[msg.sender].balance >= value){\n            providersData[msg.sender].balance -= value;\n            msg.sender.transfer(value);\n        }\n    }\n\n    // Send all outstanding balances to providers\n    function sendAllProviderBalances() public isOwner(msg.sender) payable {\n        for(uint256 i = 0; i < totalUsers; i++){\n            providersData[providers[i]].referenceAddress.transfer(providersData[providers[i]].balance);\n            providersData[providers[i]].balance = 0;\n        }\n    }\n\n    // Update the balances for both users and providers\n    function userPayForTrip(address providerAddress) public userSignedUp(msg.sender) providerSignedUp(providerAddress) {\n        providersData[providerAddress].balance += providersData[providerAddress].cost;\n        usersData[msg.sender].balance -= providersData[providerAddress].cost;\n    }\n\n    function getUserBalance() public view userSignedUp(msg.sender) returns (uint256 ret) {\n        return usersData[msg.sender].balance;\n    }\n\n    function getProviderBalance() public view providerSignedUp(msg.sender) returns (uint256 ret) {\n        return providersData[msg.sender].balance;\n    }\n\n    function setProviderCost(uint256 cost) public providerSignedUp(msg.sender) {\n        providersData[msg.sender].cost = cost;\n    }\n\n    function getProviderCost() public view providerSignedUp(msg.sender) returns (uint256 ret) {\n        return providersData[msg.sender].cost;\n    }\n\n    function getProviderData(address providerAddress) public view providerSignedUp(msg.sender) returns (string memory name, uint256 cost) {\n        name = providersData[providerAddress].name;\n        cost = providersData[providerAddress].cost;\n    }\n\n}",
  "sourcePath": "/Users/stan/Repos/sbhack-team45/payment-manager/contracts/PaymentManager.sol",
  "compiler": {
    "name": "solc",
    "version": "0.5.8+commit.23d335f2.Emscripten.clang"
  },
  "schemaVersion": "3.0.11",
  "updatedAt": "2019-06-22T21:57:00.492Z",
  "devdoc": {
    "methods": {}
  },
  "userdoc": {
    "methods": {}
  }
}